:100000000C945D000C9485000C9485000C94930472
:100010000C9493040C9493040C9485000C94850028
:100020000C9485000C9485000C9485000C942F048E
:100030000C9485000C9485000C9485000C9485002C
:100040000C948D030C9485000C94FD030C94D70341
:100050000C9485000C9485000C9485000C9485000C
:100060000C949D040C94850000000008000201001F
:100070000003040700000000000000000000000072
:10008000250028002B0000000000240027002A0083
:10009000040404040404040402020202020203032E
:1000A0000303030301020408102040800102040836
:1000B0001020010204081020B10A11241FBECFEF46
:1000C000D8E0DEBFCDBF11E0A0E0B1E0E8E3FDE1A4
:1000D00002C005900D92A83EB107D9F723E0A8EE23
:1000E000B1E001C01D92AE38B207E1F710E0CDE5F6
:1000F000D0E004C02197FE010E945F0DCC35D107EE
:10010000C9F70E94E1080C949A0E0C940000CF925B
:10011000DF92EF92FF920F931F93CF93DF936C01C7
:100120007A018B01C0E0D0E0CE15DF0581F0D80167
:100130006D918D01D601ED91FC910190F081E02D42
:10014000C6010995892B11F02196EECF7E01C701DA
:10015000DF91CF911F910F91FF90EF90DF90CF90A3
:10016000089508950895FC01538D448D252F30E0A6
:10017000842F90E0821B930B541710F0CF960895B4
:1001800001970895FC01918D828D981761F0828D01
:10019000DF01A80FB11D5D968C91928D9F5F9F73BB
:1001A000928F90E008958FEF9FEF0895FC01918D5D
:1001B000828D981731F0828DE80FF11D858D90E0CA
:1001C00008958FEF9FEF0895FC01918D228D892F67
:1001D00090E0805C9F4F821B91098F73992708954F
:1001E00085ED92E00E94E40021E0892B09F420E0F3
:1001F000822F0895FC01848DDF01A80FB11DA35A41
:10020000BF4F2C91848D90E001968F739927848F36
:10021000A689B7892C93A089B1898C918370806459
:100220008C93938D848D981306C00288F389E02DFA
:1002300080818F7D80830895EF92FF920F931F93AB
:10024000CF93DF93EC0181E0888F9B8D8C8D981389
:1002500005C0E889F989808185FD26C0F62E0B8DC1
:1002600010E00F5F1F4F0F731127E02E8C8DE812E7
:100270000CC00FB607FCFACFE889F989808185FFA9
:10028000F5CFCE010E94FA00F1CF8B8DFE01E80F71
:10029000F11DE35AFF4FF0829FB7F8940B8FEA8964
:1002A000FB89808180620AC09FB7F894EE89FF893C
:1002B0006083E889F98980818370806480839FBF2F
:1002C00081E090E0DF91CF911F910F91FF90EF902F
:1002D0000895CF93DF93EC01888D8823C9F0EA89D4
:1002E000FB89808185FD05C0A889B9898C9186FD2F
:1002F0000FC00FB607FCF5CF808185FFF2CFA8892C
:10030000B9898C9185FFEDCFCE010E94FA00E7CF2D
:10031000DF91CF91089580E090E0892B29F00E9431
:10032000F00081110C94000008950895E091690295
:1003300080916802E81730F4F0E0E659FD4F8081C3
:1003400090E008958FEF9FEF08959091690280915A
:100350006802981750F4E92FF0E0E659FD4F20812C
:1003600030E09F5F9093690202C02FEF3FEFC90119
:1003700008958091680290E020916902821B9109A2
:100380000895089580E090E0089585ED8093BC0085
:100390008091BC0084FDFCCF1092B0020895409182
:1003A0000802262F30E0240F311D21323105DCF404
:1003B0002091B0022430C9F4FC0180E090E086175F
:1003C00058F4309108022191DC01A851BE4FA30FCF
:1003D000B11D2C930196F3CF80910802680F6093B2
:1003E000080280E0089581E0089582E00895CF92A8
:1003F000DF92EF92FF920F931F93CF93DF937C01D5
:10040000CB018A012091B102222389F0EB016B011B
:10041000C40ED51ECC15DD0569F06991D701ED91AB
:10042000FC910190F081E02DC7010995F3CF642F75
:100430000E94CF01C801DF91CF911F910F91FF90D2
:10044000EF90DF90CF900895CF93DF931F92CDB7B9
:10045000DEB769832091B1022223D1F02091D4022A
:10046000203240F021E030E0FC013383228380E041
:1004700090E015C08091B202E82FF0E0ED54FD4FFE
:10048000998190838F5F8093B2028093D40205C0DC
:1004900061E0CE0101960E94CF0181E090E00F90D3
:1004A000DF91CF9108950895CF93DF93EC0186E417
:1004B00091E00E941006CE01DF91CF910C942206AC
:1004C0000E94860E8F929F92AF92BF92CF92DF9240
:1004D000EF92FF920F931F93CF93DF93CDB7DEB7C9
:1004E00062970FB6F894DEBF0FBECDBF6C018B01D3
:1004F00084E2DB011D928A95E9F784E290E0A0E0B6
:10050000B0E0FB0180839183A283B383F6018681EF
:100510009781A085B185FB0184839583A683B783EA
:1005200083E090E0A0E0B0E080879187A287B38766
:100530002FB7F8948091600290916102A0916202BD
:10054000B09163022FBF808B918BA28BB38BFE0186
:1005500031968CE0DF011D928A95E9F77E01BDE0BE
:10056000EB0EF11C86E0F70111928A95E9F7D601AE
:1005700013968C91139791E09093B1028093D302DC
:100580001092B2021092D40214968D919C911597FC
:10059000DC01ED91FC910190F081E02D6AE109957B
:1005A00081E00E94300666E0F60183810E94B90670
:1005B00010926902809368025E01F3E1AF0EB11CF4
:1005C000D60114968D919C911597DC01ED91FC91CB
:1005D0000284F385E02D0995F70181937F01EA15E7
:1005E000FB0571F76D857E85072E000C880B990B36
:1005F0000E94380C20E030E040E85DE30E94ED0C02
:100600004B015C016F857889072E000C880B990BD4
:100610000E94380C20E030E040E85DE30E94ED0CE1
:100620006B017C0169897A89072E000C880B990B74
:100630000E94380C20E030E040E85DE30E94ED0CC1
:10064000D80154968D929D92AD92BC925797F80125
:10065000C08ED18EE28EF38E5C966D937D938D93DA
:100660009C935F9781E062960FB6F894DEBF0FBE51
:10067000CDBFDF91CF911F910F91FF90EF90DF9051
:10068000CF90BF90AF909F908F9008950F931F933E
:10069000CF93DF938C01EB0188E2FB0111928A95E5
:1006A000E9F74BE050E06FE471E0CE010E948B0E61
:1006B0001B8681E090E0A0E0B0E08C879D87AE874C
:1006C000BF87F80186819781A085B185888B998B3A
:1006D000AA8BBB8B83E090E0A0E0B0E08C8B9D8B7D
:1006E000AE8BBF8B1CA21DA21EA21FA2188E198E3C
:1006F0001A8E1B8E1C8E1D8E1E8E1F8E8AE097ED0D
:10070000A3E2BCE388A399A3AAA3BBA3DF91CF91E3
:100710001F910F9108950C94FD0D1F920F920FB62B
:100720000F9211242F933F938F939F93AF93BF9377
:100730008091600290916102A0916202B091630287
:1007400030915F0223E0230F2D3720F40196A11D85
:10075000B11D05C026E8230F0296A11DB11D2093EF
:100760005F028093600290936102A0936202B09353
:1007700063028091640290916502A0916602B0913B
:1007800067020196A11DB11D8093640290936502DA
:10079000A0936602B0936702BF91AF919F918F9132
:1007A0003F912F910F900FBE0F901F9018951F92A1
:1007B0000F920FB60F9211242F933F934F935F9395
:1007C0006F937F938F939F93AF93BF93EF93FF9319
:1007D00085ED92E00E94FA00FF91EF91BF91AF91F9
:1007E0009F918F917F916F915F914F913F912F9149
:1007F0000F900FBE0F901F9018951F920F920FB67B
:100800000F9211242F938F939F93EF93FF93E09177
:10081000E502F091E6028081E091EB02F091EC02BA
:1008200082FD12C090818091EE028F5F8F732091C4
:10083000EF02821751F0E091EE02F0E0EB52FD4F33
:10084000958F8093EE0201C08081FF91EF919F917F
:100850008F912F910F900FBE0F901F9018951F92A0
:100860000F920FB60F9211242F933F938F939F9364
:10087000EF93FF938091510287FF05C0109285008E
:100880001092840005C08091510287FD8091510231
:10089000809151028F5F809351028091510287FFB6
:1008A00020C0809151028C30E4F42091840030917A
:1008B000850080915102082E000C990BFC01EE0F6F
:1008C000FF1F8E0F9F1FFC01E35DFD4F8181928111
:1008D000820F931F9093890080938800809151022A
:1008E00017C08091840090918500049680349C49C3
:1008F00018F480E49CE905C0809184009091850003
:10090000049690938900809388008FEF8093510222
:10091000FF91EF919F918F913F912F910F900FBE7B
:100920000F901F9018951F920F920FB60F921124DF
:100930000F900FBE0F901F9018951F920F920FB639
:100940000F9211242F933F934F935F936F937F9355
:100950008F939F93AF93BF93EF93FF938091B900D1
:10096000887F803609F49CC068F5883209F45BC042
:1009700090F4803109F454C038F4882309F4F6C0A7
:10098000883009F44DC0F6C0883109F44CC080327B
:1009900009F45DC0EFC0803409F468C048F48033C6
:1009A00009F455C0883309F0E5C08093AE02D8C081
:1009B000803509F44FC0883509F45DC0883409F0EA
:1009C000D9C0D6C0883909F4C7C0A8F4883709F45B
:1009D00067C038F4883609F463C0803709F460C012
:1009E000C9C0883809F4B8C0803909F45FC08038BC
:1009F00009F0C0C05BC0803B09F486C038F4803A7F
:100A000009F466C0883A09F47FC0B4C0803C09F498
:100A1000A7C0883C09F4A4C0883B09F48AC0AAC0D6
:100A200080918B0210C09091AD028091AC0298171A
:100A300070F5E091AD0281E08E0F8093AD02F0E0A1
:100A4000E457FD4F80818093BB0085EC86C0809386
:100A5000AE028EC0E091AD0281E08E0F8093AD02B8
:100A60008091BB00F0E0E457FD4F80839091AD0290
:100A70008091AC026EC0E091AD0281E08E0F809358
:100A8000AD028091BB00F0E0E457FD4F8083809180
:100A9000AF0281116DC081E080938A0284EA61C057
:100AA00083E08093B00210922A02CFCF80912A0275
:100AB000803208F051C0E0912A0281E08E0F8093CD
:100AC0002A028091BB00F0E0E65FFD4F8083BDCF3E
:100AD00085EC8093BC001092B00280912A02803293
:100AE00030F4E0912A02F0E0E65FFD4F1082609161
:100AF0002A0270E0E0915202F09153028AE092E003
:100B0000099510922A0236C084E08093B0021092B8
:100B1000090210920802E0915402F09155020995E1
:100B200080910802811105C081E080930802109233
:100B3000E801E091090281E08E0F80930902F0E064
:100B4000E851FE4F80818093BB0090910902809113
:100B50000802981708F479CF85E88093BC000AC092
:100B600085EC8093BC001092B00204C01092AE02DB
:100B70000E94C501FF91EF91BF91AF919F918F911D
:100B80007F916F915F914F913F912F910F900FBE89
:100B90000F901F90189508953FB7F89480916402C4
:100BA00090916502A0916602B091670226B5A89B5C
:100BB00005C02F3F19F00196A11DB11D3FBFBA2FEF
:100BC000A92F982F8827820F911DA11DB11DBC014F
:100BD000CD0142E0660F771F881F991F4A95D1F714
:100BE000089590E0FC01EC55FF4F2491FC01E05783
:100BF000FF4F8491882399F090E0880F991FFC01A2
:100C0000EA57FF4FA591B491FC01E458FF4F85913D
:100C100094918FB7F894EC91E22BEC938FBF0895E9
:100C2000009769F0FC0101900020E9F73197AF01CE
:100C3000481B590BBC0185ED92E00C94870080E0C5
:100C400090E00895CF93DF930E941006EC0188EDA9
:100C500091E00E9410068C0F9D1FDF91CF910895A7
:100C6000282F3091D402313208F04AC08091B0026E
:100C70008111FCCF9091D30242E04093B0022093C7
:100C8000AF022FEF2093AE021092AD023093AC0270
:100C9000E3EBF2E0ACE8B2E020E0321721F0419162
:100CA0004D932F5FFACF10928B0220918B02990FF8
:100CB000922B90938B0290918A02913061F4109262
:100CC0008A0290918B029093BB009091BC0093FD9F
:100CD000F8CF95EC01C095EE9093BC009091B002D6
:100CE0009230E1F39091AE029F3F79F08091AE0295
:100CF000803241F08091AE02803331F084E005C053
:100D000081E003C082E001C083E01092B202109241
:100D1000D4021092B10208951F93CF93DF93162F40
:100D2000C2E7D3E09B8121E02093B1029093D302EC
:100D30001092B2021092D402AC81BD81ED91FC916F
:100D400011970190F081E02D682FCD0109958C81DC
:100D50009D81DC01ED91FC910190F081E02D612FEE
:100D6000099581E00E94300681E0DF91CF911F91CB
:100D700008959091B0029111FCCF91E09093B00250
:100D80009093AF022FEF2093AE021092AD02260F88
:100D90002093AC0290938B0290918B02880F892B49
:100DA00080938B0280918A02813061F410928A02D2
:100DB00080918B028093BB008091BC0083FDF8CFB3
:100DC00085EC01C085EE8093BC008091B00281303B
:100DD000E1F38091AD02861710F46091AD02ACE8AA
:100DE000B2E0EAE6F2E080E0861721F09D9191936F
:100DF0008F5FFACF0895CF93DF93C2E7D3E08B8163
:100E000091E09093B1028093D3021092B2021092BB
:100E1000D4028C819D81DC01ED91FC910190F081E7
:100E2000E02D60E0099581E00E94300661E08B8151
:100E30000E94B90610926902809368028C819D819C
:100E4000DC01ED91FC910284F385E02D0995DF91A1
:100E5000CF9108952F923F924F925F926F927F921F
:100E60008F929F92AF92BF92CF92DF92EF92FF92BA
:100E70000F931F93CF93DF93CDB7DEB7A4970FB631
:100E8000F894DEBF0FBECDBF4B015C01F42E9B0179
:100E9000AC010E945A0D882319F08BED91E027C018
:100EA00024013501E89477F82FEF3FEF4FE75FE734
:100EB000C301B2010E945A0D81110DC02FEF3FEF07
:100EC0004FE75FE7C301B2010E94900B18161CF4B4
:100ED0008FED91E00CC02FEF3FEF4FE75FE4C501CE
:100EE000B4010E94E80C18162CF483EE91E00E94E5
:100EF0001006B8C02FEF3FEF4FE75FECC501B4011C
:100F00000E94900B87FDF1CF20E030E0A901C501E0
:100F1000B4010E94900B87FF0BC06DE285ED92E05B
:100F20000E941C013C01B7FAB094B7F8B09402C01B
:100F3000612C712C10E060E070E080E09FE3F1161E
:100F400041F020E030E040E251E40E94950B1F5F49
:100F5000F6CFA50194010E94240B4B015C010E9475
:100F6000070C6AA3C72ED82EE92E19A2262F372FD9
:100F7000482F592F8E010F5D1F4F0BA31CA39AE022
:100F8000292E312C412C512CCA01B901A201910109
:100F90000E94010B605DF80162938F0121153105FC
:100FA0004105510589F7CF010E9410068301080F02
:100FB000191FFF2009F455C06AA17C2D8D2D9E2D8F
:100FC0000E94360C9B01AC01C501B4010E94230BA9
:100FD0004B015C016EE285ED92E00E941C01080F5E
:100FE000191F8AE0282E312C412C512C20E030E0B2
:100FF00040E251E4C501B4010E94ED0C4B015C01DB
:101000000E94070C9B0140E050E019A2CBA0DCA09D
:10101000762E3AA3642EE52ECA01B901A2019101F0
:101020000E94010B605DF60162936F01211531058D
:101030004105510589F7CF010E941006080F191FBD
:10104000672D7AA1862D9E2D0E94360C9B01AC0146
:10105000C501B4010E94230B4B015C01FA94F1100D
:10106000C5CFC801A4960FB6F894DEBF0FBECDBFA2
:10107000DF91CF911F910F91FF90EF90DF90CF9074
:10108000BF90AF909F908F907F906F905F904F90A8
:101090003F902F90089590E0FC01E859FF4F249174
:1010A000FC01EC55FF4F3491FC01E057FF4FE491F8
:1010B000EE2309F43CC0222339F1233091F038F4B7
:1010C0002130A9F0223001F584B58F7D12C0273080
:1010D00091F02830A1F02430B9F4809180008F7D08
:1010E00003C0809180008F77809380000DC084B50D
:1010F0008F7784BD09C08091B0008F7703C0809145
:10110000B0008F7D8093B000F0E0EE0FFF1FE45839
:10111000FF4FA591B4919FB7F894611104C08C91D1
:101120003095382302C0EC913E2B3C939FBF08952D
:101130008F929F92AF92BF92CF92DF92EF92FF92E7
:101140006B017C010E94CC054B015C01C114D104F0
:10115000E104F104F1F00E94CC05DC01CB01881917
:101160009909AA09BB09883E9340A105B10570F30E
:1011700021E0C21AD108E108F10888EE880E83E068
:10118000981EA11CB11CC114D104E104F10419F78B
:10119000DDCFFF90EF90DF90CF90BF90AF909F900A
:1011A0008F900895E2E7F3E082879387682F8DE3BD
:1011B00090E00E948C066EE170E080E090E00C947C
:1011C0009808CF93DF93CDB7DEB7A4970FB6F89406
:1011D000DEBF0FBECDBF789484B5826084BD84B578
:1011E000816084BD85B5826085BD85B5816085BD22
:1011F00080916E00816080936E00109281008091DA
:101200008100826080938100809181008160809361
:101210008100809180008160809380008091B10086
:1012200084608093B1008091B00081608093B000B1
:1012300080917A00846080937A0080917A00826045
:1012400080937A0080917A00816080937A00809107
:101250007A00806880937A001092C100E091E502E4
:10126000F091E60282E08083E091E102F091E202F7
:101270001082E091E302F091E40280E18083109219
:10128000ED02E091E902F091EA0286E08083E091CC
:10129000E702F091E802808180618083E091E702BB
:1012A000F091E802808188608083E091E702F0910C
:1012B000E802808180688083E091E702F091E80293
:1012C00080818F7D808386E591E00E945402109298
:1012D0006902109268021092B2021092D402109227
:1012E000B00281E08093AF0210928A0261E082E155
:1012F0000E944B0861E083E10E944B088091B90095
:101300008E7F8093B9008091B9008D7F8093B90062
:1013100088E48093B80085E48093BC0081EB90E082
:10132000909355028093540282EB90E09093530285
:10133000809352020E94FB06803A51F480E090E0D4
:101340000E94D20860E28FE390E00E948C0617C0F2
:1013500068EE73E080E090E00E9498080E94FB062F
:10136000803A61F381EA91E00E9410068BEA91E0F5
:101370000E94220684EC91E00E94540292C00E94D6
:10138000FB06803A39F06AE070E080E090E00E946D
:101390009808F5CF62E370E080E090E00E94980842
:1013A00060E08EE390E00E948C066AE070E080E0EE
:1013B00090E00E94980860E087E090E00E948C0630
:1013C00060E08FE390E00E948C066AE070E080E0CD
:1013D00090E00E9498088CE090E00E94D20864E1BE
:1013E00070E080E090E00E94980868EE73E080E092
:1013F00090E00E94980800917C0310917D0380E0AA
:1014000090E00E94D20869E170E080E090E00E94E4
:10141000980860E087E090E00E948C0660E88FE327
:1014200090E00E948C066AE070E080E090E00E940C
:101430009808C8010E94D20864E170E080E090E062
:101440000E94980889E691E00E94540283E00E947D
:10145000F1058AE090E090935D0280935C0282E85F
:1014600091E080935E028BE090E090935A0280932B
:10147000590286E891E080935B028CE090E09093C3
:101480005702809356028DE891E0809358028AE0DB
:101490000E94F1058BE00E94F1058CE00E94F105AD
:1014A00001C0FFCF10915C0261E0812F0E944B08C8
:1014B00064E670E080E090E00E94980860E0812F90
:1014C0000E944B081091590261E0812F0E944B0845
:1014D00064E670E080E090E00E94980860E0812F70
:1014E0000E944B081091560261E0812F0E944B0828
:1014F00064E670E080E090E00E94980860E0812F50
:101500000E944B08BE016F5F7F4F82E793E00E940D
:10151000620283E991E00E9410066D897E898F89BD
:10152000988D44E00E942A0787E991E00E94100606
:10153000698D7A8D8B8D9C8D44E00E942A078CE901
:1015400091E00E9410066D8D7E8D8F8D98A144E0F4
:101550000E942A078AED91E00E9422060E948B01D8
:10156000A1CFE5EDF2E01382128248EE53E060E095
:1015700070E044835583668377838AE091E09183AA
:10158000808385EC90E09587848784EC90E0978752
:10159000868780EC90E0918B808B81EC90E0938B40
:1015A000828B82EC90E0958B848B86EC90E0978B1D
:1015B000868B118E128E138E148EAEE7B3E01396C7
:1015C0001C921E92129714964D935D936D937C938B
:1015D00017978CE191E011969C938E93E2E7F3E0EC
:1015E0008EE291E09183808347E350E060E070E019
:1015F000468357836087718788E28383B583A4839A
:101600000895A1E21A2EAA1BBB1BFD010DC0AA1F43
:10161000BB1FEE1FFF1FA217B307E407F50720F05B
:10162000A21BB30BE40BF50B661F771F881F991FD6
:101630001A9469F760957095809590959B01AC011F
:10164000BD01CF0108955058BB27AA270E943B0B2C
:101650000C94AE0C0E94A00C38F00E94A70C20F055
:1016600039F49F3F19F426F40C949D0C0EF4E09588
:10167000E7FB0C94970CE92F0E94BF0C58F3BA17A4
:10168000620773078407950720F079F4A6F50C9498
:10169000E10C0EF4E0950B2EBA2FA02D0B01B90131
:1016A00090010C01CA01A0011124FF27591B99F0D8
:1016B000593F50F4503E68F11A16F040A22F232FE4
:1016C000342F4427585FF3CF469537952795A79534
:1016D000F0405395C9F77EF41F16BA0B620B730BDB
:1016E000840BBAF09150A1F0FF0FBB1F661F771F4C
:1016F000881FC2F70EC0BA0F621F731F841F48F401
:10170000879577956795B795F7959E3F08F0B0CF89
:101710009395880F08F09927EE0F97958795089570
:101720000E94730C08F481E008950E94A90B0C94A8
:10173000AE0C0E94A70C58F00E94A00C40F029F4B7
:101740005F3F29F00C94970C51110C94E20C0C940F
:101750009D0C0E94BF0C68F39923B1F3552391F3BC
:10176000951B550BBB27AA2762177307840738F010
:101770009F5F5F4F220F331F441FAA1FA9F335D06D
:101780000E2E3AF0E0E832D091505040E695001C21
:10179000CAF72BD0FE2F29D0660F771F881FBB1FDB
:1017A000261737074807AB07B0E809F0BB0B802DB9
:1017B000BF01FF2793585F4F3AF09E3F510578F0E5
:1017C0000C94970C0C94E20C5F3FE4F3983ED4F336
:1017D000869577956795B795F7959F5FC9F7880FB9
:1017E000911D9695879597F90895E1E0660F771F0B
:1017F000881FBB1F621773078407BA0720F0621B9C
:10180000730B840BBA0BEE1F88F7E09508950E94C6
:10181000C70C88F09F5798F0B92F9927B751B0F0AF
:10182000E1F0660F771F881F991F1AF0BA95C9F764
:1018300014C0B13091F00E94E10CB1E008950C9415
:10184000E10C672F782F8827B85F39F0B93FCCF3C8
:10185000869577956795B395D9F73EF490958095E1
:10186000709561957F4F8F4F9F4F0895E89409C001
:1018700097FB3EF490958095709561957F4F8F4FC3
:101880009F4F9923A9F0F92F96E9BB279395F695D9
:10189000879577956795B795F111F8CFFAF4BB0F57
:1018A00011F460FF1BC06F5F7F4F8F4F9F4F16C0BB
:1018B000882311F096E911C0772321F09EE8872F45
:1018C000762F05C0662371F096E8862F70E060E001
:1018D0002AF09A95660F771F881FDAF7880F96957A
:1018E000879597F90895990F0008550FAA0BE0E81E
:1018F000FEEF16161706E807F907C0F012161306D2
:10190000E407F50798F0621B730B840B950B39F411
:101910000A2661F0232B242B252B21F408950A2677
:1019200009F4A140A6958FEF811D811D089597F9B7
:101930009F6780E870E060E008959FEF80EC089575
:1019400000240A941616170618060906089500249E
:101950000A9412161306140605060895092E039418
:10196000000C11F4882352F0BB0F40F4BF2B11F48C
:1019700060FF04C06F5F7F4F8F4F9F4F089557FDEB
:101980009058440F551F59F05F3F71F04795880FED
:1019900097FB991F61F09F3F79F087950895121684
:1019A00013061406551FF2CF4695F1DF08C0161630
:1019B00017061806991FF1CF8695710561050894E1
:1019C0000895E894BB2766277727CB0197F90895F8
:1019D0000E94730C08F48FEF08950E94000D0C9480
:1019E000AE0C0E94A00C38F00E94A70C20F09523AA
:1019F00011F00C94970C0C949D0C11240C94E20C97
:101A00000E94BF0C70F3959FC1F3950F50E0551FD6
:101A1000629FF001729FBB27F00DB11D639FAA2743
:101A2000F00DB11DAA1F649F6627B00DA11D661F92
:101A3000829F2227B00DA11D621F739FB00DA11DB3
:101A4000621F839FA00D611D221F749F3327A00D6D
:101A5000611D231F849F600D211D822F762F6A2F09
:101A600011249F5750409AF0F1F088234AF0EE0F6E
:101A7000FF1FBB1F661F771F881F91505040A9F79B
:101A80009E3F510580F00C94970C0C94E20C5F3F44
:101A9000E4F3983ED4F3869577956795B795F795D7
:101AA000E7959F5FC1F7FE2B880F911D969587954F
:101AB00097F908950E94730C880B990B0895EE0F07
:101AC000FF1F0590F491E02D09940F931F93CF937E
:101AD000DF938230910510F482E090E0E0918C0376
:101AE000F0918D0320E030E0A0E0B0E0309719F1F4
:101AF000408151810281138148175907C8F084172A
:101B0000950769F4109731F012960C93129713967B
:101B10001C9327C000938C0310938D0322C02115C2
:101B2000310519F04217530718F49A01BD01EF016E
:101B3000DF01F801DBCF21153105F9F0281B390B46
:101B40002430310580F48A819B816115710521F073
:101B5000FB019383828304C090938D0380938C0355
:101B6000FE01329644C0FE01E20FF31F8193919370
:101B700022503109398328833AC020918A03309159
:101B80008B03232B41F42091020130910301309308
:101B90008B0320938A0320910001309101012115CC
:101BA000310541F42DB73EB7409104015091050134
:101BB000241B350BE0918A03F0918B03E217F307A6
:101BC000A0F42E1B3F0B2817390778F0AC014E5FAD
:101BD0005F4F2417350748F04E0F5F1F50938B035C
:101BE00040938A038193919302C0E0E0F0E0CF013B
:101BF000DF91CF911F910F910895CF93DF930097BD
:101C000009F481C0FC01329713821282A0918C03E7
:101C1000B0918D03109781F420813181820F931F41
:101C200020918A0330918B032817390751F5F093DF
:101C30008B03E0938A0367C0ED0120E030E0CE170C
:101C4000DF0740F44A815B819E0141155105F1F0A7
:101C5000EA01F5CFD383C28340815181840F951F60
:101C6000C817D90759F488819981840F951F029666
:101C7000918380838A819B8193838283211531059F
:101C800029F4F0938D03E0938C033DC0E901FB83BD
:101C9000EA8349915991C40FD51FEC17FD0761F4F0
:101CA00080819181840F951F0296E9019983888331
:101CB000828193819B838A83E0E0F0E012968D918C
:101CC0009C911397009719F0FD01DC01F7CF8D91DE
:101CD0009C9111979D012E5F3F4F820F931F209182
:101CE0008A0330918B032817390769F4309729F458
:101CF00010928D0310928C0302C013821282B09353
:101D00008B03A0938A03DF91CF91089581E090E047
:101D1000F8940C949A0EFB01DC014150504048F0BD
:101D200001900D920020C9F701C01D924150504012
:081D3000E0F70895F894FFCFDD
:101D380000008E038000000000001C018700B30033
:101D48006901E400C200D600000000002402F70187
:101D5800C2019501B901A501960100000000CB055B
:101D68008B035302620246030000000000000000DB
:101D78005302600260025B4E4F54455D3A200042B8
:101D88004E4F3035350053657269616C20496E6974
:101D98007469616C697A656400494D552070726F89
:101DA8007065726C7920696E697469616C697A65AD
:101DB80064005265640059656C6C6F770047726502
:101DC800656E00583A200009593A2000095A3A200D
:101DD800005B4552524F525D3A2000494D552066EE
:101DE80061696C656420746F20696E697469616CDF
:101DF800697A65005465726D696E6174696E6720F1
:101E080070726F6772616D000D0A006E616E006915
:081E18006E66006F76660000A3
:00000001FF
